:100073003F065B4F666D7D077F6F777C395E7971D5
:10005500D3EF9400EE940040147D6E7C00ED1D708E
:0D006500011CED4C70F7EF1F70E61E80E3EC
:01007200226B
:07008F00C288D2AFD2A82203
:1000060012008FD2A1E4F580C2A1E4FBFAD2A27F4E
:10001600F47E01120055EB90007393F5800BBB0044
:0A002600010AEB64104A70E580E067
:03000300020030C8
:10003000C0E0C0D075D000C004C005C006C007C273
:10004000A27FD07E07120055D007D006D005D0047D
:05005000D0D0D0E03229
:0300000002008378
:0C008300787FE4F6D8FD758107020006C6
:00000001FF
