:10006C002020202034422032303820006E62206E56
:0C007C0062206E62206E622021212100B3
:0A000300C2A58F80D2A77F057E0002
:10000D00D3EF9400EE940040147D6E7C00ED1D70D6
:0D001D00011CED4C70F7EF1F70E61E80E334
:01002A0022B3
:0800C100C2A6120003C2A7222F
:0800C900D2A6120003C2A72217
:1000A1007F381200C17F0F1200C17F061200C17F8D
:0400B100010200C187
:10002B00E4F508F5091200886017F50A7FF47E01E4
:10003B0012000DAF0A1200C9740129F9E43AFA80D3
:01004B00E4D0
:01004C002291
:10004D001200A17F801200C17BFF7A00796C120033
:0F005D002B7FC01200C17A00797812002B80FE31
:030000000200B546
:0C00B500787FE4F6D8FD75810A02004D4A
:10008800BB010689828A83E0225002E722BBFE0276
:09009800E32289828A83E49322A9
:00000001FF
