:10004D0068656C6C6F20776F726C642100746F64DF
:10005D0061792069732073756E64617921212100A6
:0A000300C2A58F80D2A67F057E0003
:10000D00D3EF9400EE940040147D6E7C00ED1D70D6
:0D001D00011CED4C70F7EF1F70E61E80E334
:01002A0022B3
:0800C500C2A4120003C2A6222E
:0800CD00D2A4120003C2A62216
:1000A5007F381200C57F0F1200C57F061200C57F7D
:0400B500010200C57F
:10002B00E4F508F50912008C6017F50A7FF47E01E0
:10003B0012000DAF0A1200CD740129F9E43AFA80CF
:01004B00E4D0
:01004C002291
:10006D001200A57F801200C57BFF7A00794D12002A
:0F007D002B7FC01200C57A00795A12002B80FE2B
:030000000200B942
:0C00B900787FE4F6D8FD75810A02006D26
:10008C00BB010689828A83E0225002E722BBFE0272
:09009C00E32289828A83E49322A5
:00000001FF
