:04008F0041004200EA
:10006900758920758DFD758BFDD28EC29FD29ED26A
:020079009C22C7
:10000300D3EF9400EE940040147D6E7C00ED1D70E0
:0D001300011CED4C70F7EF1F70E61E80E33E
:0100200022BD
:080087008F993099FDC2992206
:1000560012003DFF600C120087740129F9E43AFA98
:0300660080EE2207
:100021001200697BFF7A00798F1200567FF47E01FE
:0C0031001200037A00799112005680FE44
:0300000002007B80
:0C007B00787FE4F6D8FD758107020021B3
:10003D00BB010689828A83E0225002E722BBFE02C1
:09004D00E32289828A83E49322F4
:00000001FF
