:1001CB003F065B4F666D7D077F6F777C395E79717C
:07000300010900020C0000DE
:100167001201BBE509B40A20AF0DAE0C1200EF0572
:100177000DE50D7002050CD39464E50C9400400561
:0D018700E4F50CF50DE4F50912013180D608
:0901940093F580C2A17F017E00F9
:10019D00D3EF9400EE940040147D6E7C00ED1D7045
:0D01AD00011CED4C70F7EF1F70E61E80E3A3
:0101BA002222
:100131007580FED2A0C2A0D2A1E5089001CB120128
:10014100947580FDD2A0C2A0D2A1E50A12019475D6
:1001510080FBD2A0C2A0D2A1E50B93F580C2A17F02
:06016100017E0002019D79
:1000EF00AB07AA067C007D6412009A8F087C007D06
:1000FF0064AF03AE0212009A7E007F0ACFCDCFCE3F
:10010F00CCCE12009A8F0AAE02AF037C007D641230
:10011F00009A7E007F0ACFCDCFCECCCE12009A8D23
:02012F000B22A1
:1001BB00758901758C3C758AB0D2AFD2A9D28C22CD
:03000B000201DB14
:0901DB00758C3C758AB0050932EF
:0300000002000EED
:0C000E00787FE4F6D8FD75810D020055E6
:10009A00BC000BBE0029EF8DF084FFADF022E4CC4A
:1000AA00F875F008EF2FFFEE33FEEC33FCEE9DEC13
:1000BA00984005FCEE9DFE0FD5F0E9E4CEFD22ED59
:1000CA00F8F5F0EE8420D21CFEADF075F008EF2FA3
:1000DA00FFED33FD4007985006D5F0F222C398FD94
:0500EA000FD5F0EA2231
:10001A00020167E493A3F8E493A34003F68001F294
:10002A0008DFF48029E493A3F85407240CC8C333E7
:10003A00C4540F4420C8834004F456800146F6DFB6
:10004A00E4800B0102040810204080900003E47E43
:10005A00019360BCA3FF543F30E509541FFEE493AB
:10006A00A360010ECF54C025E060A840B8E493A372
:10007A00FAE493A3F8E493A3C8C582C8CAC583CA9D
:10008A00F0A3C8C582C8CAC583CADFE9DEE780BE55
:01000A0000F5
:00000001FF
