:040066007F887E13FE
:10006A00D3EF9400EE940040147D6E7C00ED1D7079
:0D007A00011CED4C70F7EF1F70E61E80E3D7
:010087002256
:100003007BFC7A008B90900000120066EB25E0FBEE
:10001300EA33FA4303018B90A3E5826408458370B6
:10002300E87A007B3F8B90E4F583F582120066EA61
:10003300C313FAEB13FB4303808B90A3E58264089D
:10004300458370E8E4F583F582C3E5829403E58391
:10005300940050AC7590FF120066E4F590120066B0
:03006300A380E691
:0300000002008873
:0C008800787FE4F6D8FD758107020003C4
:00000001FF
