:10006F007FBFDFEFF7FBFDFEFFFF00005555AAAA8C
:10005100D3EF9400EE940040147D6E7C00ED1D7092
:0D006100011CED4C70F7EF1F70E61E80E3F0
:01006E00226F
:100003007590FEE4FBFA7FE87E03120051EB90004B
:100013006F93F5900BBB00010AEB64104A70E77510
:10002300907FE4FAFB7FE87E03120051C374109BB8
:10003300FFE49AFE746F2FF58274003EF583E49318
:0D004300F5900BBB00010AEB64104A70D869
:01005000228D
:0300000002007F7C
:0C007F00787FE4F6D8FD758107020003CD
:00000001FF
