:1001B8003F065B4F666D7D077F6F777C395E79718F
:0401C800020C054DD3
:1001A300AF0DAE0C1200E4850B11AB0AAD09AF081D
:0501B30012013380F28F
:06017F00C2A07F017E001A
:10018500D3EF9400EE940040147D6E7C00ED1D705D
:0D019500011CED4C70F7EF1F70E61E80E3BB
:0101A200223A
:10013300AA05D2A1EF9001B893F580C2A1D2A07510
:1001430080FE12017FD2A1EA93F580C2A1D2A075ED
:1001530080FB12017FD2A1EB93F580C2A1D2A075DF
:1001630080EF12017FD2A1E51193F580C2A1D2A045
:0C0173007580BFC2A07F017E00020185E4
:1000E400AB07AA067C037DE812008F8F087C037D92
:1000F400E8AF03AE0212008F7E007F64CFCDCFCE77
:10010400CCCE12008F8F097C007D64AF03AE021247
:10011400008F7E007F0ACFCDCFCECCCE12008F8F42
:0F0124000AAE02AF037C007D0A12008F8D0B2202
:03000000020003F8
:0C000300787FE4F6D8FD75811102004AF8
:10008F00BC000BBE0029EF8DF084FFADF022E4CC55
:10009F00F875F008EF2FFFEE33FEEC33FCEE9DEC1E
:1000AF00984005FCEE9DFE0FD5F0E9E4CEFD22ED64
:1000BF00F8F5F0EE8420D21CFEADF075F008EF2FAE
:1000CF00FFED33FD4007985006D5F0F222C398FD9F
:0500DF000FD5F0EA223C
:10000F000201A3E493A3F8E493A34003F68001F263
:10001F0008DFF48029E493A3F85407240CC8C333F2
:10002F00C4540F4420C8834004F456800146F6DFC1
:10003F00E4800B01020408102040809001C8E47E88
:10004F00019360BCA3FF543F30E509541FFEE493B6
:10005F00A360010ECF54C025E060A840B8E493A37D
:10006F00FAE493A3F8E493A3C8C582C8CAC583CAA8
:10007F00F0A3C8C582C8CAC583CADFE9DEE780BE60
:0101CC000032
:00000001FF
