:1000E600323031392D30352D3130204649520020FD
:0A00F6002031323A31333A31340040
:0A009C00C2A58F80D2A67F057E006A
:1000A600D3EF9400EE940040147D6E7C00ED1D703D
:0D00B600011CED4C70F7EF1F70E61E80E39B
:0100C300221A
:08000300C2A412009CC2A62257
:08012500D2A412009CC2A62224
:10000E00750A0A750B0A75090AC2A2C2A37F3812B5
:10001E0000037F0F1200037F061200037F01120000
:10002E0003E4FBEB9000E693FF1201251200A20BF6
:10003E00BB0EF07FC0120003E4FBEB9000F593FFC4
:0A004E001201251200A20BBB0AF0FC
:010058002285
:10010000758901758C3C758AB0D2AFD2A9D28C2288
:1000C400ED75F00A84FBED75F00A84AAF0EF24C004
:1000D400FF120003EB2430FF120125EA2430FF0253
:0200E4000125F4
:1000590012000E120100E508B414FBE4F5080509C5
:10006900E509643C7024F509050BE50BB43C14E47F
:10007900F50B050AE50AB41803E4F50AAD0A7F028F
:100089001200C4AD0B7F051200C4AD097F08120030
:03009900C480C35D
:03000B0002011CD3
:09011C00758C3C758AB0050832AF
:03000000020110EA
:0C011000787FE4F6D8FD75810B020059E1
:00000001FF
