:1002FD003F065B4F666D7D077F6F777C395E797149
:04031800020C0000D3
:0402DB007F0A7E0018
:1002DF00D3EF9400EE940040147D6E7C00ED1D7002
:0E02EF00011CED4C70F7EF1F70E61E80E3223D
:0B030D001200031202991201EE80F5AD
:1001E80085B00953090FAF087E00AD0A7C00AB0B40
:0201F8007A008B
:1001FA008C0E8D0F7580FED2A1C2A1D2A0EF900203
:10020A00FD93F580C2A07F017E001202DF7580FD9A
:10021A00D2A1C2A1D2A0E50F93F580C2A07F017E30
:10022A00001202DF7580FBD2A1C2A1D2A0EB93F526
:0A023A0080C2A07F017E000202DFF7
:1000030075B07F85B00953090FE509640F60461287
:1000130002DBE509640F60F185B009E50924896015
:100023002324FC601724FE600B14701E750C0075EE
:100033000D018016750C00750D19800E750C007579
:100043000D518006750C00750DA9E509640F60C29A
:100053001201E880F575B0BF85B00953090FE509B2
:10006300640F60461202DBE509640F60F185B00995
:10007300E5092449602324FC601724FE600B1470F7
:100083001E750C00750D048016750C00750D24800B
:100093000E750C00750D648006750C00750DC4E5B6
:1000A30009640F60C21201E880F575B0DF85B009FD
:1000B30053090FE509640F60461202DBE509640F7B
:1000C30060F185B009E5092429602324FC60172425
:1000D300FE600B14701E750C00750D098016750CEF
:1000E30000750D31800E750C00750D798006750C49
:1000F30000750DE1E509640F60C21201E880F57532
:10010300B0EF85B00953090FE509640F6046120289
:10011300DBE509640F60F185B009E5092419602363
:1001230024FC601724FE600B14701E750C00750D03
:10013300108016750C00750D40800E750C00750D42
:10014300908006750C01750D00E509640F60C212FD
:0901530001E880F5AE0CAF0D22AD
:10029900AB07AA067C007D641202448F087C007DAE
:1002A90064AF03AE021202447E007F0ACFCDCFCEE7
:1002B900CCCE1202448F0AAE02AF037C007D6412D9
:1002C90002447E007F0ACFCDCFCECCCE1202448D20
:0202D9000B22F6
:0300000002015C9E
:0C015C00787FE4F6D8FD75810F0201A346
:10024400BC000BBE0029EF8DF084FFADF022E4CC9E
:10025400F875F008EF2FFFEE33FEEC33FCEE9DEC67
:10026400984005FCEE9DFE0FD5F0E9E4CEFD22EDAD
:10027400F8F5F0EE8420D21CFEADF075F008EF2FF7
:10028400FFED33FD4007985006D5F0F222C398FDE8
:050294000FD5F0EA2285
:1001680002030DE493A3F8E493A34003F68001F29D
:1001780008DFF48029E493A3F85407240CC8C33398
:10018800C4540F4420C8834004F456800146F6DF67
:10019800E4800B0102040810204080900318E47EDC
:1001A800019360BCA3FF543F30E509541FFEE4935C
:1001B800A360010ECF54C025E060A840B8E493A323
:1001C800FAE493A3F8E493A3C8C582C8CAC583CA4E
:1001D800F0A3C8C582C8CAC583CADFE9DEE780BE06
:01031C0000E0
:00000001FF
