:1000F5003F065B4F666D7D077F6F777C395E797153
:0801050002080000020A0000DC
:10009A001200E5D2A07580C3C2A0E5096414450820
:1000AA00700CF508F509050BE50B7002050AD2A1DB
:0C00BA00E50B9000F593F580C2A180DEFC
:1000E500758901758C3C758AB0D2AFD2A9D28C22A4
:03000B000200C62A
:1000C600C0E0758C3C758AB00509E5097002050823
:0F00D600E50B6410450A7004F50AF50BD0E03213
:0300000002000EED
:0C000E00787FE4F6D8FD75810B020055E8
:10001A0002009AE493A3F8E493A34003F68001F262
:10002A0008DFF48029E493A3F85407240CC8C333E7
:10003A00C4540F4420C8834004F456800146F6DFB6
:10004A00E4800B0102040810204080900105E47E40
:10005A00019360BCA3FF543F30E509541FFEE493AB
:10006A00A360010ECF54C025E060A840B8E493A372
:10007A00FAE493A3F8E493A3C8C582C8CAC583CA9D
:10008A00F0A3C8C582C8CAC583CADFE9DEE780BE55
:01010D0000F1
:00000001FF
