:100278003F065B4F666D7D077F6F777C395E7971CE
:0802940012000312017C80F846
:10017C00AB07AA067C007D641201F98E088F097CFE
:10018C00007D64AF03AE021201F97E007F0ACFCD71
:10019C00CFCECCCE1201F98E0B8F0CAE02AF037CFE
:1001AC00007D641201F97E007F0ACFCDCFCECCCE7C
:1001BC001201F98C0D8D0E7580FED2A1C2A1D2A0B8
:1001CC00E50912024E7580FDD2A1C2A1D2A0E50CA8
:1001DC0012024E7580FBD2A1C2A1D2A0E50E9002F4
:0D01EC007893F580C2A07F017E0002025AC8
:1000030075B0FE85B00A530AF0E50A64F0604E7FCE
:100013000A7E0012025AE50A64F060ED85B00AE533
:100023000A2442601424E0601824F0601C247070D9
:100033001E750F007510018016750F007510048072
:100043000E750F007510098006750F00751010E509
:100053000A64F060C185B00A530AF080F275B0FDFE
:1000630085B00A530AF0E50A64F0604E7F0A7E0009
:1000730012025AE50A64F060ED85B00AE50A2443EA
:10008300601424E0601824F0601C2470701E750F47
:10009300007510198016750F00751024800E750FEA
:1000A300007510318006750F00751040E50A64F085
:1000B30060C185B00A530AF080F275B0FB85B00ABF
:1000C300530AF0E50A64F0604E7F0A7E0012025A7A
:1000D300E50A64F060ED85B00AE50A24456014245E
:1000E300E0601824F0601C2470701E750F007510FA
:1000F300518016750F00751064800E750F00751012
:10010300798006750F00751090E50A64F060C1856B
:10011300B00A530AF080F275B0F785B00A530AF0BB
:10012300E50A64F0604E7F0A7E0012025AE50A6413
:10013300F060ED85B00AE50A2449601424E06018F4
:1001430024F0601C2470701E750F007510A98016B2
:10015300750F007510C4800E750F007510E18006D1
:10016300750F01751000E50A64F060C185B00A538C
:080173000AF080F2AE0FAF109C
:01017B002261
:0C024E0090027893F580C2A07F017E0032
:10025A00D3EF9400EE940040147D6E7C00ED1D7087
:0D026A00011CED4C70F7EF1F70E61E80E3E5
:010277002264
:0300000002028871
:0C028800787FE4F6D8FD75811002029426
:1001F900BC000BBE0029EF8DF084FFADF022E4CCEA
:10020900F875F008EF2FFFEE33FEEC33FCEE9DECB2
:10021900984005FCEE9DFE0FD5F0E9E4CEFD22EDF8
:10022900F8F5F0EE8420D21CFEADF075F008EF2F42
:10023900FFED33FD4007985006D5F0F222C398FD33
:050249000FD5F0EA22D0
:00000001FF
