:10018A003F065B4F666D7D077F6F777C395E7971BD
:04019A00020B007BD9
:10017800AF0CAE0B12011FAB0AAD09AF081200E4B9
:0201880080F500
:06015400C2A07F017E0045
:10015A00D3EF9400EE940040147D6E7C00ED1D7088
:0D016A00011CED4C70F7EF1F70E61E80E3E6
:010177002265
:1000E400AA05D2A1EF90018A93F580C2A1D2A0758E
:1000F40080DF120154D2A1EA93F580C2A1D2A07587
:1001040080BF120154D2A1EB93F580C2A1D2A07595
:0B011400807FC2A07F017E0002015A24
:10011F00AB07AA067C007D6412008F8F087C007DE0
:10012F0064AF03AE0212008F7E007F0ACFCDCFCE19
:10013F00CCCE12008F8F09AE02AF037C007D0A1266
:05014F00008F8D0A2263
:03000000020003F8
:0C000300787FE4F6D8FD75810C02004AFD
:10008F00BC000BBE0029EF8DF084FFADF022E4CC55
:10009F00F875F008EF2FFFEE33FEEC33FCEE9DEC1E
:1000AF00984005FCEE9DFE0FD5F0E9E4CEFD22ED64
:1000BF00F8F5F0EE8420D21CFEADF075F008EF2FAE
:1000CF00FFED33FD4007985006D5F0F222C398FD9F
:0500DF000FD5F0EA223C
:10000F00020178E493A3F8E493A34003F68001F28E
:10001F0008DFF48029E493A3F85407240CC8C333F2
:10002F00C4540F4420C8834004F456800146F6DFC1
:10003F00E4800B010204081020408090019AE47EB6
:10004F00019360BCA3FF543F30E509541FFEE493B6
:10005F00A360010ECF54C025E060A840B8E493A37D
:10006F00FAE493A3F8E493A3C8C582C8CAC583CAA8
:10007F00F0A3C8C582C8CAC583CADFE9DEE780BE60
:01019E000060
:00000001FF
